:080000000C94AC000C9400000C
:100008000C9400000C9400000C9400000C94000068
:100018000C9400000C9400000C9400000C94000058
:100028000C9400000C9400000C9400000C94000048
:100038000C9400000C9400000C9400000C94000038
:100048000C9400000C9400000C9400001027E803A6
:1000580064000A0001000010000110000100000007
:10006800000000000000000053746174653A536C8E
:100078006565702020200053746174653A44726F7E
:1000880077737920200053746174653A52656C6106
:10009800786564200053746174653A466F637573BC
:1000A8006564200053746174653A4E6F5369676ED6
:1000B800616C0044656C74613A25752525005468A7
:1000C8006574613A2575252500416C7068613A258B
:1000D8007525250042657461203A25752525004E51
:1000E8006F205369676E616C00204545472053694E
:1000F8006D756C61746F720020496E697469616C0A
:10010800697A696E672E2E2E0044656C74613D25F0
:100118007525252054686574613D25752525204180
:100128006C7068613D2575252520426574613D2503
:100138007525252053746174653D25640D0A0000FA
:1001480080C00A00040066000200CA0248010000DC
:10015800F894EE27ECBBF1E0FBBFEBBFE5BF8DE009
:10016800A2E0BB27ED938A95E9F780E098E0A0E646
:10017800ED930197E9F7EAE4F1E08591959100970D
:1001880061F0A591B59105901590BF01F00105901A
:100198000D920197E1F7FB01F0CFEFE5EDBFE8E045
:1001A800EEBFC0E6D2E00C942402AA93E881E06492
:1001B800E7B98BE18A95F1F7369A349BFECF349AEA
:1001C800E4B1F5B10C94EE04AA932497E0E0E88337
:1001D800E983EA83EB831A9310E0103180F4AD8150
:1001E800E4DFA981BA818B819C81662777270E94E9
:1001F8009905E983FA836B837C831F5FEECFA9811E
:10020800BA818B819C81E0E1F0E060E070E00E94BF
:10021800C205188126960895A0E0D6DF2F01A1E037
:10022800D3DF3F01A2E0D0DF4F01A3E0CDDF5F01C4
:1002380008956201E1E0E0936002C614D70420F457
:100248006301E2E0E0936002C814D90420F4640179
:10025800E3E0E0936002CA14DB0420F46501E4E003
:10026800E0936002EFE0F0E0CE16DF0618F4E0E07D
:10027800E0936002F301E40DF51DE80DF91DEA0DA8
:10028800FB1D66277727E0936102F0936202609373
:10029800630270936402A0916102B091620280913E
:1002A8006302909164020E94F80598F4D2010E94BA
:1002B8000905E0936502D3010E940905E0936602EF
:1002C800D4010E940905E0936702D5010E9409053F
:1002D80007C0E0E0E0936502E0936602E0936702FE
:1002E800E0936802E0916102F0916202609163021A
:1002F800709164020E94F40511F4E0E017C0A09127
:100308006502A23310F0E1E011C0A0916602A832A4
:1003180010F0E2E00BC0A0916702A83230F4A0917F
:100328006802AD3210F0E4E001C0E3E0E09360025F
:100338000895E0E0EA93A0E00E9460040E941E0590
:1003480019F4A0E7B0E017C0E230A0E0FA0719F40A
:10035800AFE7B0E010C0E330A0E0FA0719F4AEE868
:10036800B0E009C0E430A0E0FA0719F4ADE9B0E064
:1003780002C0ACEAB0E00E94AE040E941E0549F437
:100388000E942505EBEBF0E00E942A050E94340547
:1003980037C0E230A0E0FA0759F40E942505E6ECE0
:1003A800F0E0FA93EA930E9439050E94340528C0C8
:1003B800E330A0E0FA0759F40E942505E1EDF0E0EA
:1003C800FA93EA930E9441050E94340519C0E4306B
:1003D800A0E0FA0759F40E942505ECEDF0E0FA9345
:1003E800EA930E9449050E9434050AC00E94250527
:1003F800E7EEF0E0FA93EA9380E00E940C0424967A
:10040800E0E0EA93A1E00E946004A9E6B2E00E945D
:100418009F040895AA935D9BFECFE881ECB90C94E4
:10042800EE04BA93AA93A881B981EC91E03031F037
:10043800ED91A883B983AE2FEDDFF5CF0C946F044F
:10044800E0E0EABBEBBBE7BBE8BBEDEFE4BBE0E019
:10045800E5BBE1BBE2BBE3BFE2BFECBFEFBDEEBD76
:10046800EDBDECBDE7BDE6BDEBBDEABDE9BDE8BD50
:10047800E2BDE5BDE4BDE3BDE9BFE5BFE4BFE0BD66
:10048800E3E3E9B9E0E0EBB9E8E0EAB9E6E8E0BDC2
:10049800E0E8E8B9E0E4E7B9E6E8E6B9E0E0E0BFBB
:1004A800EDB9E6BFA0E10E94C1040E947104E0E03A
:1004B800EA93A0E00E946004A1EFB0E00E94AE04BD
:1004C800E0E0EA93A1E00E946004A0E0B1E00E94AD
:1004D800AE04ACEDB5E00E948B050E9471049CDE71
:1004E800A8DE27DFEAE7F2E0FA93EA93E1E1F1E038
:1004F8000E942A050E9439050E9441050E9449056B
:10050800E0916002FF27662777270E94EF0584E1C4
:100518000E940C046896AAE7B2E083DFA4EFB1E07A
:100528000E948B05DCCFFFCFBA93AA931A930A9344
:10053800AA81BB8112960E94E705309759F1AA81DA
:10054800BB8114960E94E7058F01309761F0023055
:10055800E0E01E0798F0F80131978F01AA81BB816E
:100568001496ED93FC93AA81BB811296ED91FD91AF
:100578003196FE93EE933197AC81A083AA81BB811B
:100588000E94E705FF232AF0ED91FD913196FE9335
:10059800EE9306C0AA81BB81EFEFFFEFED93FC93CA
:1005A8001981088125960895BA93AA9326970E94DF
:1005B800FE0510E0AC85BD85E0E0F0E0ED93FC932E
:1005C800EA89FB893196EA8BFB8B3197E4912E2FD0
:1005D800E03009F415C1E12FE03039F4253211F487
:1005E80011E002C00E9451050AC1E130A9F4253288
:1005F80019F40E94510502C112E040E000E02D32DA
:1006080011F401E0FCC02B3211F44BE2F8C02032A7
:1006180011F440E2F4C002C0E23039F450E013E0D3
:10062800203311F40068EBC003C0E33009F0E7C0E1
:10063800203310F02A3308F007C0AAE05A9F502D43
:10064800E22FE0535E0FDBC0E22FE33649F40E944D
:100658005805E889F989A481AA930E945E05CEC04D
:10066800E33741F40E9458050E9464050E94F00493
:100678001E2F0AC0E03761F40E9458050E946405E5
:100688000E94FC041E2F086002600F7730E034C01F
:10069800E43611F0E93611F4046002C0E53731F4AC
:1006A800E4E5F0E0EE83FF8315E00CC0E83511F4D3
:1006B800086003C0E83709F0A1C0EEE5F0E0EE837A
:1006C800FF8314E002FF14C00E9458050E946E05C3
:1006D800AB85AA233AF4EA85FB850E949E05EA8742
:1006E800FB874DE2403011F01F5F01C00B7F04C053
:1006F8000E9458050E946E0500FD11C0151778F478
:1007080007FF08C002FF04C00B7F242F115001C04F
:1007180020E301C020E20E9451055150EFCF312F54
:1007280001FF17C03030A1F003FF06C0EE81FF8142
:100738002591EE83FF8305C0AE81BF812D91AE83E5
:10074800BF830E945105503009F051503150EACF13
:100758004BC020E3EE81FF810E94EB05E887F98713
:10076800EE81FF813296EE83FF83E885F985AA85BD
:10077800BB85AE17BF0750F02F5FA885B985EA85FE
:10078800FB85EA1BFB0BEA87FB87EFCF2A3328F0B0
:1007980003FF02C0295F01C0295D04FD1AC021338F
:1007A80020F4A885B985119709F409C0531710F0EA
:1007B80000FF01C013C020E207FF0BC020E3006167
:1007C80002FF07C00B7F4A930E945E05503009F074
:1007D80051500E945105503009F051503150A885B0
:1007E800B985129708F0B5CF00FF08C0503031F036
:1007F8005150E0E2EA930E945E05F8CF10E0E0CEA7
:10080800AC85BD850E94E7050E940506649608959B
:10081800FF92F82E26970E9400060E9476053097D0
:1008280019F4EFEFFFEF23C0DE0116960E9495053D
:100838008D010E947605EE83FF83E0E0E887E98773
:10084800DE011A960E9495050E94E705FA93EA933D
:100858001A930A93E8E9F2E0FA93EA93DE011A960A
:10086800A3DE9F01AE81BF81E0E0EC93F9010E9415
:1008780007062A96FF900895AA93E5B3EF70AE2F66
:10088800E881E07FEA2BE5BB8DE08A95F1F7AA9A2B
:100898008DE08A95F1F7AA988DE08A95F1F79AC0CC
:1008A800AA93A881E9DFE881E295E883A881E4DFDB
:1008B80085E88A95F1F78EC0AA93E881F0E0E653BF
:1008C800FD4FE081A981AE0FEBDFE981E093CE0215
:1008D800E881E093CF0222960895A2E00E947D0568
:1008E800ACE0DEDFA1E00E947D05E0E0E093CF020E
:1008F800E093CE020895AA93A881AA3031F0E0913E
:10090800D002A091CE02AE1760F0E0E0EA93A09189
:10091800CF02AF5FA093CF02CFDFA881AA3009F43E
:1009280059C0E091CE02EF5FE093CE02A89AA88169
:10093800B7DFA8984FC0BA93AA931A93A981BA812E
:10094800ED91A983BA831E2FE03019F0A12FD3DFD0
:10095800F5CF10C0BA93AA931A93E981FA81319618
:10096800E983FA833197E4911E2FE03019F0A12F23
:10097800C2DFF3CF188123960895AA93E4B3E06FFA
:10098800E4BBA29AA09AA19AAA98A898A998E881E3
:10099800E093D002E058E093CC02E881E054E09381
:1009A800CD02A4E1B0E00E948B050E9483050E945D
:1009B80083050E948305A0E25FDF88EC90E0019741
:1009C800F1F7A8E26DDFA4E06BDFA5E869DFA6E038
:1009D80067DF83DF21960895BA93AA93A991B99105
:1009E800EE27FF276D91662311F03196FBCF08950E
:1009F800BA93AA93AA27BB27E991F99105900020F9
:100A080011F01196FBCFFD01089588279927E4E698
:100A1800F0E060E070E00E94A205DF01CB01E09108
:100A28006102F091620260916302709164020E9417
:100A3800C2050895E0916002F0E0E130A0E0FA0715
:100A48000895E9E6F2E0FA93EA930895FA93EA93AF
:100A5800E0916502FF27662777270E94EF05089532
:100A680084E00E940C0428960895E0916602FF270E
:100A7800662777270E94EF050895E0916702FF2710
:100A8800662777270E94EF050895E0916802FF27FF
:100A9800662777270E94EF0508952A93AD85BE85BE
:100AA800EF85F88909950895E889F9893497E88BDD
:100AB800F98B0895AD85BE85EF85F8890995089568
:100AC800A889B98914960E94E705EE83FF83AE8151
:100AD800BF810895A889B98914960E94E705EA8715
:100AE800FB870895DE011C960E9495050E94E70584
:100AF80008950E945404A3E0B0E00C948B05A0E391
:100B08000E94400488EC90E00197F1F70895109650
:100B180039F0A89580ED97E00197F1F71197C9F79B
:100B280008950024AF0DB01D0895EA0FFB1F681F3C
:100B3800791F0895F195E195F04008957A9F702DF9
:100B48006B9F700DF89F700DE99F700D6A9F602D67
:100B5800710DFB9F600D711DE89F600D711D882749
:100B6800FA9FF02D610D781FEB9FF00D611D781F26
:100B7800EA9FE02DF10D681F781F08953F934F936A
:100B88005F93002411244427552730E2AA0FBB1F86
:100B9800881F991F001C111C441F551F0E1A1F0A7D
:100BA800460B570B28F40E0E1F1E461F571F01C079
:100BB800A1603A9559F7FD01BC01D001CA015F91C6
:100BC8004F913F910895ED91FC91119708950590EB
:100BD800F491E02D08957A936A93FA93EA9308952D
:100BE800309760407040089500240A160B060806E6
:100BF800090608955A934A933A932A931A930A93A3
:100C080008955D814C813B812A811981088108956D
:00000001FF
